{
  "contractName": "Board",
  "abi": [
    {
      "inputs": [
        {
          "internalType": "string",
          "name": "_name",
          "type": "string"
        },
        {
          "internalType": "string",
          "name": "_symbol",
          "type": "string"
        }
      ],
      "stateMutability": "nonpayable",
      "type": "constructor"
    },
    {
      "anonymous": false,
      "inputs": [
        {
          "indexed": true,
          "internalType": "address",
          "name": "owner",
          "type": "address"
        },
        {
          "indexed": true,
          "internalType": "address",
          "name": "approved",
          "type": "address"
        },
        {
          "indexed": true,
          "internalType": "uint256",
          "name": "tokenId",
          "type": "uint256"
        }
      ],
      "name": "Approval",
      "type": "event"
    },
    {
      "anonymous": false,
      "inputs": [
        {
          "indexed": true,
          "internalType": "address",
          "name": "owner",
          "type": "address"
        },
        {
          "indexed": true,
          "internalType": "address",
          "name": "operator",
          "type": "address"
        },
        {
          "indexed": false,
          "internalType": "bool",
          "name": "approved",
          "type": "bool"
        }
      ],
      "name": "ApprovalForAll",
      "type": "event"
    },
    {
      "anonymous": false,
      "inputs": [
        {
          "indexed": true,
          "internalType": "address",
          "name": "previousOwner",
          "type": "address"
        },
        {
          "indexed": true,
          "internalType": "address",
          "name": "newOwner",
          "type": "address"
        }
      ],
      "name": "OwnershipTransferred",
      "type": "event"
    },
    {
      "anonymous": false,
      "inputs": [
        {
          "indexed": true,
          "internalType": "address",
          "name": "from",
          "type": "address"
        },
        {
          "indexed": true,
          "internalType": "address",
          "name": "to",
          "type": "address"
        },
        {
          "indexed": true,
          "internalType": "uint256",
          "name": "tokenId",
          "type": "uint256"
        }
      ],
      "name": "Transfer",
      "type": "event"
    },
    {
      "inputs": [
        {
          "internalType": "address",
          "name": "to",
          "type": "address"
        },
        {
          "internalType": "uint256",
          "name": "tokenId",
          "type": "uint256"
        }
      ],
      "name": "approve",
      "outputs": [],
      "stateMutability": "nonpayable",
      "type": "function"
    },
    {
      "inputs": [
        {
          "internalType": "address",
          "name": "owner",
          "type": "address"
        }
      ],
      "name": "balanceOf",
      "outputs": [
        {
          "internalType": "uint256",
          "name": "",
          "type": "uint256"
        }
      ],
      "stateMutability": "view",
      "type": "function",
      "constant": true
    },
    {
      "inputs": [
        {
          "internalType": "uint256",
          "name": "tokenId",
          "type": "uint256"
        }
      ],
      "name": "getApproved",
      "outputs": [
        {
          "internalType": "address",
          "name": "",
          "type": "address"
        }
      ],
      "stateMutability": "view",
      "type": "function",
      "constant": true
    },
    {
      "inputs": [
        {
          "internalType": "address",
          "name": "owner",
          "type": "address"
        },
        {
          "internalType": "address",
          "name": "operator",
          "type": "address"
        }
      ],
      "name": "isApprovedForAll",
      "outputs": [
        {
          "internalType": "bool",
          "name": "",
          "type": "bool"
        }
      ],
      "stateMutability": "view",
      "type": "function",
      "constant": true
    },
    {
      "inputs": [],
      "name": "maxSupply",
      "outputs": [
        {
          "internalType": "uint256",
          "name": "",
          "type": "uint256"
        }
      ],
      "stateMutability": "view",
      "type": "function",
      "constant": true
    },
    {
      "inputs": [],
      "name": "name",
      "outputs": [
        {
          "internalType": "string",
          "name": "",
          "type": "string"
        }
      ],
      "stateMutability": "view",
      "type": "function",
      "constant": true
    },
    {
      "inputs": [],
      "name": "owner",
      "outputs": [
        {
          "internalType": "address",
          "name": "",
          "type": "address"
        }
      ],
      "stateMutability": "view",
      "type": "function",
      "constant": true
    },
    {
      "inputs": [
        {
          "internalType": "uint256",
          "name": "tokenId",
          "type": "uint256"
        }
      ],
      "name": "ownerOf",
      "outputs": [
        {
          "internalType": "address",
          "name": "",
          "type": "address"
        }
      ],
      "stateMutability": "view",
      "type": "function",
      "constant": true
    },
    {
      "inputs": [],
      "name": "renounceOwnership",
      "outputs": [],
      "stateMutability": "nonpayable",
      "type": "function"
    },
    {
      "inputs": [
        {
          "internalType": "address",
          "name": "operator",
          "type": "address"
        },
        {
          "internalType": "bool",
          "name": "approved",
          "type": "bool"
        }
      ],
      "name": "setApprovalForAll",
      "outputs": [],
      "stateMutability": "nonpayable",
      "type": "function"
    },
    {
      "inputs": [
        {
          "internalType": "bytes4",
          "name": "interfaceId",
          "type": "bytes4"
        }
      ],
      "name": "supportsInterface",
      "outputs": [
        {
          "internalType": "bool",
          "name": "",
          "type": "bool"
        }
      ],
      "stateMutability": "view",
      "type": "function",
      "constant": true
    },
    {
      "inputs": [],
      "name": "symbol",
      "outputs": [
        {
          "internalType": "string",
          "name": "",
          "type": "string"
        }
      ],
      "stateMutability": "view",
      "type": "function",
      "constant": true
    },
    {
      "inputs": [
        {
          "internalType": "uint256",
          "name": "",
          "type": "uint256"
        }
      ],
      "name": "tiles",
      "outputs": [
        {
          "internalType": "address",
          "name": "owner",
          "type": "address"
        },
        {
          "internalType": "uint8",
          "name": "x",
          "type": "uint8"
        },
        {
          "internalType": "uint8",
          "name": "y",
          "type": "uint8"
        },
        {
          "internalType": "string",
          "name": "imgUrl",
          "type": "string"
        }
      ],
      "stateMutability": "view",
      "type": "function",
      "constant": true
    },
    {
      "inputs": [
        {
          "internalType": "uint256",
          "name": "tokenId",
          "type": "uint256"
        }
      ],
      "name": "tokenURI",
      "outputs": [
        {
          "internalType": "string",
          "name": "",
          "type": "string"
        }
      ],
      "stateMutability": "view",
      "type": "function",
      "constant": true
    },
    {
      "inputs": [],
      "name": "totalSupply",
      "outputs": [
        {
          "internalType": "uint256",
          "name": "",
          "type": "uint256"
        }
      ],
      "stateMutability": "view",
      "type": "function",
      "constant": true
    },
    {
      "inputs": [
        {
          "internalType": "address",
          "name": "newOwner",
          "type": "address"
        }
      ],
      "name": "transferOwnership",
      "outputs": [],
      "stateMutability": "nonpayable",
      "type": "function"
    },
    {
      "inputs": [
        {
          "internalType": "uint256",
          "name": "_id",
          "type": "uint256"
        }
      ],
      "name": "mint",
      "outputs": [],
      "stateMutability": "payable",
      "type": "function",
      "payable": true
    },
    {
      "inputs": [
        {
          "internalType": "address",
          "name": "from",
          "type": "address"
        },
        {
          "internalType": "address",
          "name": "to",
          "type": "address"
        },
        {
          "internalType": "uint256",
          "name": "tokenId",
          "type": "uint256"
        }
      ],
      "name": "transferFrom",
      "outputs": [],
      "stateMutability": "nonpayable",
      "type": "function"
    },
    {
      "inputs": [
        {
          "internalType": "address",
          "name": "from",
          "type": "address"
        },
        {
          "internalType": "address",
          "name": "to",
          "type": "address"
        },
        {
          "internalType": "uint256",
          "name": "tokenId",
          "type": "uint256"
        }
      ],
      "name": "safeTransferFrom",
      "outputs": [],
      "stateMutability": "nonpayable",
      "type": "function"
    },
    {
      "inputs": [
        {
          "internalType": "address",
          "name": "from",
          "type": "address"
        },
        {
          "internalType": "address",
          "name": "to",
          "type": "address"
        },
        {
          "internalType": "uint256",
          "name": "tokenId",
          "type": "uint256"
        },
        {
          "internalType": "bytes",
          "name": "_data",
          "type": "bytes"
        }
      ],
      "name": "safeTransferFrom",
      "outputs": [],
      "stateMutability": "nonpayable",
      "type": "function"
    },
    {
      "inputs": [],
      "name": "getTiles",
      "outputs": [
        {
          "components": [
            {
              "internalType": "address",
              "name": "owner",
              "type": "address"
            },
            {
              "internalType": "uint8",
              "name": "x",
              "type": "uint8"
            },
            {
              "internalType": "uint8",
              "name": "y",
              "type": "uint8"
            },
            {
              "internalType": "string",
              "name": "imgUrl",
              "type": "string"
            }
          ],
          "internalType": "struct Board.Tile[]",
          "name": "",
          "type": "tuple[]"
        }
      ],
      "stateMutability": "view",
      "type": "function",
      "constant": true
    },
    {
      "inputs": [
        {
          "internalType": "uint256",
          "name": "_id",
          "type": "uint256"
        }
      ],
      "name": "getTile",
      "outputs": [
        {
          "components": [
            {
              "internalType": "address",
              "name": "owner",
              "type": "address"
            },
            {
              "internalType": "uint8",
              "name": "x",
              "type": "uint8"
            },
            {
              "internalType": "uint8",
              "name": "y",
              "type": "uint8"
            },
            {
              "internalType": "string",
              "name": "imgUrl",
              "type": "string"
            }
          ],
          "internalType": "struct Board.Tile",
          "name": "",
          "type": "tuple"
        }
      ],
      "stateMutability": "view",
      "type": "function",
      "constant": true
    },
    {
      "inputs": [
        {
          "internalType": "uint256",
          "name": "_id",
          "type": "uint256"
        },
        {
          "internalType": "string",
          "name": "url",
          "type": "string"
        }
      ],
      "name": "setTileImgUrl",
      "outputs": [],
      "stateMutability": "nonpayable",
      "type": "function"
    }
  ],
  "bytecode": "0x6080604052600060075560906008553480156200001b57600080fd5b5060405162002302380380620023028339810160408190526200003e9162000398565b8151829082906200005790600090602085019062000225565b5080516200006d90600190602084019062000225565b5050506200008a62000084620001cf60201b60201c565b620001d3565b60005b600c8160ff161015620001c65760005b600c8160ff161015620001b05760408051608081018252600080825260ff8086166020808501918252868316858701908152865180830190975284875260608601968752600980546001810182559552855160029095027f6e1540171b6c0c960b71a7020d9f60077f6af931a8bbf590da0223dacf75c7af81018054945192518616600160a81b0260ff60a81b1993909616600160a01b026001600160a81b03199095166001600160a01b0397909716969096179390931716929092178355935180519394929362000197937f6e1540171b6c0c960b71a7020d9f60077f6af931a8bbf590da0223dacf75c7b00192919091019062000225565b5050508080620001a79062000402565b9150506200009d565b5080620001bd8162000402565b9150506200008d565b5050506200046c565b3390565b600680546001600160a01b038381166001600160a01b0319831681179093556040519116919082907f8be0079c531659141344cd1fd0a4f28419497f9722a3daafe3b4186f6b6457e090600090a35050565b828054620002339062000430565b90600052602060002090601f016020900481019282620002575760008555620002a2565b82601f106200027257805160ff1916838001178555620002a2565b82800160010185558215620002a2579182015b82811115620002a257825182559160200191906001019062000285565b50620002b0929150620002b4565b5090565b5b80821115620002b05760008155600101620002b5565b634e487b7160e01b600052604160045260246000fd5b600082601f830112620002f357600080fd5b81516001600160401b0380821115620003105762000310620002cb565b604051601f8301601f19908116603f011681019082821181831017156200033b576200033b620002cb565b816040528381526020925086838588010111156200035857600080fd5b600091505b838210156200037c57858201830151818301840152908201906200035d565b838211156200038e5760008385830101525b9695505050505050565b60008060408385031215620003ac57600080fd5b82516001600160401b0380821115620003c457600080fd5b620003d286838701620002e1565b93506020850151915080821115620003e957600080fd5b50620003f885828601620002e1565b9150509250929050565b600060ff821660ff81036200042757634e487b7160e01b600052601160045260246000fd5b60010192915050565b600181811c908216806200044557607f821691505b6020821081036200046657634e487b7160e01b600052602260045260246000fd5b50919050565b611e86806200047c6000396000f3fe6080604052600436106101405760003560e01c8063715018a6116100b6578063a97cc1141161006f578063a97cc11414610387578063b88d4fde146103b4578063c87b56dd146103d4578063d5abeb01146103f4578063e985e9c51461040a578063f2fde38b1461045357600080fd5b8063715018a6146102ec5780637d08e5ff146103015780638da5cb5b1461032157806395d89b411461033f578063a0712d6814610354578063a22cb4651461036757600080fd5b80631d3a01c6116101085780631d3a01c61461021a57806323b872dd1461023c5780632fd2e7421461025c57806342842e0e1461028c5780636352211e146102ac57806370a08231146102cc57600080fd5b806301ffc9a71461014557806306fdde031461017a578063081812fc1461019c578063095ea7b3146101d457806318160ddd146101f6575b600080fd5b34801561015157600080fd5b5061016561016036600461183c565b610473565b60405190151581526020015b60405180910390f35b34801561018657600080fd5b5061018f6104c5565b60405161017191906118b1565b3480156101a857600080fd5b506101bc6101b73660046118c4565b610557565b6040516001600160a01b039091168152602001610171565b3480156101e057600080fd5b506101f46101ef3660046118f9565b6105f1565b005b34801561020257600080fd5b5061020c60075481565b604051908152602001610171565b34801561022657600080fd5b5061022f610706565b6040516101719190611964565b34801561024857600080fd5b506101f46102573660046119c6565b61082e565b34801561026857600080fd5b5061027c6102773660046118c4565b6108a1565b6040516101719493929190611a02565b34801561029857600080fd5b506101f46102a73660046119c6565b610979565b3480156102b857600080fd5b506101bc6102c73660046118c4565b610994565b3480156102d857600080fd5b5061020c6102e7366004611a41565b610a0b565b3480156102f857600080fd5b506101f4610a92565b34801561030d57600080fd5b506101f461031c366004611ae8565b610af8565b34801561032d57600080fd5b506006546001600160a01b03166101bc565b34801561034b57600080fd5b5061018f610b68565b6101f46103623660046118c4565b610b77565b34801561037357600080fd5b506101f4610382366004611b43565b610c44565b34801561039357600080fd5b506103a76103a23660046118c4565b610c4f565b6040516101719190611b7f565b3480156103c057600080fd5b506101f46103cf366004611b92565b610d71565b3480156103e057600080fd5b5061018f6103ef3660046118c4565b610df5565b34801561040057600080fd5b5061020c60085481565b34801561041657600080fd5b50610165610425366004611c0e565b6001600160a01b03918216600090815260056020908152604080832093909416825291909152205460ff1690565b34801561045f57600080fd5b506101f461046e366004611a41565b610edd565b60006001600160e01b031982166380ac58cd60e01b14806104a457506001600160e01b03198216635b5e139f60e01b145b806104bf57506301ffc9a760e01b6001600160e01b03198316145b92915050565b6060600080546104d490611c41565b80601f016020809104026020016040519081016040528092919081815260200182805461050090611c41565b801561054d5780601f106105225761010080835404028352916020019161054d565b820191906000526020600020905b81548152906001019060200180831161053057829003601f168201915b5050505050905090565b6000818152600260205260408120546001600160a01b03166105d55760405162461bcd60e51b815260206004820152602c60248201527f4552433732313a20617070726f76656420717565727920666f72206e6f6e657860448201526b34b9ba32b73a103a37b5b2b760a11b60648201526084015b60405180910390fd5b506000908152600460205260409020546001600160a01b031690565b60006105fc82610994565b9050806001600160a01b0316836001600160a01b0316036106695760405162461bcd60e51b815260206004820152602160248201527f4552433732313a20617070726f76616c20746f2063757272656e74206f776e656044820152603960f91b60648201526084016105cc565b336001600160a01b038216148061068557506106858133610425565b6106f75760405162461bcd60e51b815260206004820152603860248201527f4552433732313a20617070726f76652063616c6c6572206973206e6f74206f7760448201527f6e6572206e6f7220617070726f76656420666f7220616c6c000000000000000060648201526084016105cc565b6107018383610fa8565b505050565b60606009805480602002602001604051908101604052809291908181526020016000905b82821015610825576000848152602090819020604080516080810182526002860290920180546001600160a01b038116845260ff600160a01b8204811695850195909552600160a81b90049093169082015260018201805491929160608401919061079490611c41565b80601f01602080910402602001604051908101604052809291908181526020018280546107c090611c41565b801561080d5780601f106107e25761010080835404028352916020019161080d565b820191906000526020600020905b8154815290600101906020018083116107f057829003601f168201915b5050505050815250508152602001906001019061072a565b50505050905090565b6108383382611016565b6108545760405162461bcd60e51b81526004016105cc90611c7b565b816009828154811061086857610868611ccd565b6000918252602090912060029091020180546001600160a01b0319166001600160a01b039290921691909117905561070183838361110d565b600981815481106108b157600080fd5b6000918252602090912060029091020180546001820180546001600160a01b038316945060ff600160a01b8404811694600160a81b909404169291906108f690611c41565b80601f016020809104026020016040519081016040528092919081815260200182805461092290611c41565b801561096f5780601f106109445761010080835404028352916020019161096f565b820191906000526020600020905b81548152906001019060200180831161095257829003601f168201915b5050505050905084565b61070183838360405180602001604052806000815250610d71565b6000818152600260205260408120546001600160a01b0316806104bf5760405162461bcd60e51b815260206004820152602960248201527f4552433732313a206f776e657220717565727920666f72206e6f6e657869737460448201526832b73a103a37b5b2b760b91b60648201526084016105cc565b60006001600160a01b038216610a765760405162461bcd60e51b815260206004820152602a60248201527f4552433732313a2062616c616e636520717565727920666f7220746865207a65604482015269726f206164647265737360b01b60648201526084016105cc565b506001600160a01b031660009081526003602052604090205490565b6006546001600160a01b03163314610aec5760405162461bcd60e51b815260206004820181905260248201527f4f776e61626c653a2063616c6c6572206973206e6f7420746865206f776e657260448201526064016105cc565b610af660006112a9565b565b60098281548110610b0b57610b0b611ccd565b60009182526020909120600290910201546001600160a01b03163314610b3057600080fd5b8060098381548110610b4457610b44611ccd565b9060005260206000209060020201600101908051906020019061070192919061178d565b6060600180546104d490611c41565b600754600854811115610b8957600080fd5b60006001600160a01b031660098381548110610ba757610ba7611ccd565b60009182526020909120600290910201546001600160a01b031614610bcb57600080fd5b670de0b6b3a7640000341015610be057600080fd5b3360098381548110610bf457610bf4611ccd565b6000918252602082206002919091020180546001600160a01b0319166001600160a01b0393909316929092179091556007805491610c3183611cf9565b9190505550610c4033836112fb565b5050565b610c40338383611315565b604080516080810182526000808252602082018190529181019190915260608082015260098281548110610c8557610c85611ccd565b600091825260209182902060408051608081018252600290930290910180546001600160a01b038116845260ff600160a01b8204811695850195909552600160a81b900490931690820152600182018054919291606084019190610ce890611c41565b80601f0160208091040260200160405190810160405280929190818152602001828054610d1490611c41565b8015610d615780601f10610d3657610100808354040283529160200191610d61565b820191906000526020600020905b815481529060010190602001808311610d4457829003601f168201915b5050505050815250509050919050565b610d7b3383611016565b610d975760405162461bcd60e51b81526004016105cc90611c7b565b826009610da5600185611d12565b81548110610db557610db5611ccd565b6000918252602090912060029091020180546001600160a01b0319166001600160a01b0392909216919091179055610def848484846113e3565b50505050565b6000818152600260205260409020546060906001600160a01b0316610e745760405162461bcd60e51b815260206004820152602f60248201527f4552433732314d657461646174613a2055524920717565727920666f72206e6f60448201526e3732bc34b9ba32b73a103a37b5b2b760891b60648201526084016105cc565b6000610e8b60408051602081019091526000815290565b90506000815111610eab5760405180602001604052806000815250610ed6565b80610eb584611416565b604051602001610ec6929190611d29565b6040516020818303038152906040525b9392505050565b6006546001600160a01b03163314610f375760405162461bcd60e51b815260206004820181905260248201527f4f776e61626c653a2063616c6c6572206973206e6f7420746865206f776e657260448201526064016105cc565b6001600160a01b038116610f9c5760405162461bcd60e51b815260206004820152602660248201527f4f776e61626c653a206e6577206f776e657220697320746865207a65726f206160448201526564647265737360d01b60648201526084016105cc565b610fa5816112a9565b50565b600081815260046020526040902080546001600160a01b0319166001600160a01b0384169081179091558190610fdd82610994565b6001600160a01b03167f8c5be1e5ebec7d5bd14f71427d1e84f3dd0314c0f7b2291e5b200ac8c7c3b92560405160405180910390a45050565b6000818152600260205260408120546001600160a01b031661108f5760405162461bcd60e51b815260206004820152602c60248201527f4552433732313a206f70657261746f7220717565727920666f72206e6f6e657860448201526b34b9ba32b73a103a37b5b2b760a11b60648201526084016105cc565b600061109a83610994565b9050806001600160a01b0316846001600160a01b031614806110d55750836001600160a01b03166110ca84610557565b6001600160a01b0316145b8061110557506001600160a01b0380821660009081526005602090815260408083209388168352929052205460ff165b949350505050565b826001600160a01b031661112082610994565b6001600160a01b0316146111845760405162461bcd60e51b815260206004820152602560248201527f4552433732313a207472616e736665722066726f6d20696e636f72726563742060448201526437bbb732b960d91b60648201526084016105cc565b6001600160a01b0382166111e65760405162461bcd60e51b8152602060048201526024808201527f4552433732313a207472616e7366657220746f20746865207a65726f206164646044820152637265737360e01b60648201526084016105cc565b6111f1600082610fa8565b6001600160a01b038316600090815260036020526040812080546001929061121a908490611d12565b90915550506001600160a01b0382166000908152600360205260408120805460019290611248908490611d58565b909155505060008181526002602052604080822080546001600160a01b0319166001600160a01b0386811691821790925591518493918716917fddf252ad1be2c89b69c2b068fc378daa952ba7f163c4a11628f55a4df523b3ef91a4505050565b600680546001600160a01b038381166001600160a01b0319831681179093556040519116919082907f8be0079c531659141344cd1fd0a4f28419497f9722a3daafe3b4186f6b6457e090600090a35050565b610c40828260405180602001604052806000815250611517565b816001600160a01b0316836001600160a01b0316036113765760405162461bcd60e51b815260206004820152601960248201527f4552433732313a20617070726f766520746f2063616c6c65720000000000000060448201526064016105cc565b6001600160a01b03838116600081815260056020908152604080832094871680845294825291829020805460ff191686151590811790915591519182527f17307eab39ab6107e8899845ad3d59bd9653f200f220920489ca2b5937696c31910160405180910390a3505050565b6113ee84848461110d565b6113fa8484848461154a565b610def5760405162461bcd60e51b81526004016105cc90611d70565b60608160000361143d5750506040805180820190915260018152600360fc1b602082015290565b8160005b8115611467578061145181611cf9565b91506114609050600a83611dd8565b9150611441565b60008167ffffffffffffffff81111561148257611482611a5c565b6040519080825280601f01601f1916602001820160405280156114ac576020820181803683370190505b5090505b8415611105576114c1600183611d12565b91506114ce600a86611dec565b6114d9906030611d58565b60f81b8183815181106114ee576114ee611ccd565b60200101906001600160f81b031916908160001a905350611510600a86611dd8565b94506114b0565b611521838361164b565b61152e600084848461154a565b6107015760405162461bcd60e51b81526004016105cc90611d70565b60006001600160a01b0384163b1561164057604051630a85bd0160e11b81526001600160a01b0385169063150b7a029061158e903390899088908890600401611e00565b6020604051808303816000875af19250505080156115c9575060408051601f3d908101601f191682019092526115c691810190611e33565b60015b611626573d8080156115f7576040519150601f19603f3d011682016040523d82523d6000602084013e6115fc565b606091505b50805160000361161e5760405162461bcd60e51b81526004016105cc90611d70565b805181602001fd5b6001600160e01b031916630a85bd0160e11b149050611105565b506001949350505050565b6001600160a01b0382166116a15760405162461bcd60e51b815260206004820181905260248201527f4552433732313a206d696e7420746f20746865207a65726f206164647265737360448201526064016105cc565b6000818152600260205260409020546001600160a01b0316156117065760405162461bcd60e51b815260206004820152601c60248201527f4552433732313a20746f6b656e20616c7265616479206d696e7465640000000060448201526064016105cc565b6001600160a01b038216600090815260036020526040812080546001929061172f908490611d58565b909155505060008181526002602052604080822080546001600160a01b0319166001600160a01b03861690811790915590518392907fddf252ad1be2c89b69c2b068fc378daa952ba7f163c4a11628f55a4df523b3ef908290a45050565b82805461179990611c41565b90600052602060002090601f0160209004810192826117bb5760008555611801565b82601f106117d457805160ff1916838001178555611801565b82800160010185558215611801579182015b828111156118015782518255916020019190600101906117e6565b5061180d929150611811565b5090565b5b8082111561180d5760008155600101611812565b6001600160e01b031981168114610fa557600080fd5b60006020828403121561184e57600080fd5b8135610ed681611826565b60005b8381101561187457818101518382015260200161185c565b83811115610def5750506000910152565b6000815180845261189d816020860160208601611859565b601f01601f19169290920160200192915050565b602081526000610ed66020830184611885565b6000602082840312156118d657600080fd5b5035919050565b80356001600160a01b03811681146118f457600080fd5b919050565b6000806040838503121561190c57600080fd5b611915836118dd565b946020939093013593505050565b60018060a01b03815116825260ff602082015116602083015260ff604082015116604083015260006060820151608060608501526111056080850182611885565b6000602080830181845280855180835260408601915060408160051b870101925083870160005b828110156119b957603f198886030184526119a7858351611923565b9450928501929085019060010161198b565b5092979650505050505050565b6000806000606084860312156119db57600080fd5b6119e4846118dd565b92506119f2602085016118dd565b9150604084013590509250925092565b6001600160a01b038516815260ff848116602083015283166040820152608060608201819052600090611a3790830184611885565b9695505050505050565b600060208284031215611a5357600080fd5b610ed6826118dd565b634e487b7160e01b600052604160045260246000fd5b600067ffffffffffffffff80841115611a8d57611a8d611a5c565b604051601f8501601f19908116603f01168101908282118183101715611ab557611ab5611a5c565b81604052809350858152868686011115611ace57600080fd5b858560208301376000602087830101525050509392505050565b60008060408385031215611afb57600080fd5b82359150602083013567ffffffffffffffff811115611b1957600080fd5b8301601f81018513611b2a57600080fd5b611b3985823560208401611a72565b9150509250929050565b60008060408385031215611b5657600080fd5b611b5f836118dd565b915060208301358015158114611b7457600080fd5b809150509250929050565b602081526000610ed66020830184611923565b60008060008060808587031215611ba857600080fd5b611bb1856118dd565b9350611bbf602086016118dd565b925060408501359150606085013567ffffffffffffffff811115611be257600080fd5b8501601f81018713611bf357600080fd5b611c0287823560208401611a72565b91505092959194509250565b60008060408385031215611c2157600080fd5b611c2a836118dd565b9150611c38602084016118dd565b90509250929050565b600181811c90821680611c5557607f821691505b602082108103611c7557634e487b7160e01b600052602260045260246000fd5b50919050565b60208082526032908201527f455243373231203a207472616e736665722063616c6c6572206973206e6f74206040820152711bdddb995c881b9bdc88185c1c1c9bdd995960721b606082015260800190565b634e487b7160e01b600052603260045260246000fd5b634e487b7160e01b600052601160045260246000fd5b600060018201611d0b57611d0b611ce3565b5060010190565b600082821015611d2457611d24611ce3565b500390565b60008351611d3b818460208801611859565b835190830190611d4f818360208801611859565b01949350505050565b60008219821115611d6b57611d6b611ce3565b500190565b60208082526032908201527f4552433732313a207472616e7366657220746f206e6f6e20455243373231526560408201527131b2b4bb32b91034b6b83632b6b2b73a32b960711b606082015260800190565b634e487b7160e01b600052601260045260246000fd5b600082611de757611de7611dc2565b500490565b600082611dfb57611dfb611dc2565b500690565b6001600160a01b0385811682528416602082015260408101839052608060608201819052600090611a3790830184611885565b600060208284031215611e4557600080fd5b8151610ed68161182656fea264697066735822122037e1addd752172a0472d89856518b5a690474d4aa0f15542fb9e6db78b2d6a7564736f6c634300080d0033",
  "immutableReferences": {},
  "source": "// SPDX-License-Identifier: MIT\npragma solidity ^0.8.0;\n\nimport \"@openzeppelin/contracts/token/ERC721/ERC721.sol\";\nimport \"@openzeppelin/contracts/access/Ownable.sol\";\n\ncontract Board is ERC721,Ownable {\n    uint public totalSupply = 0;\n    uint public maxSupply = 144;\n\n    struct Tile {\n        address owner;\n        uint8 x;\n        uint8 y;\n        string imgUrl;\n    }\n\n    Tile[] public tiles;\n\n    constructor(string memory _name, string memory _symbol) ERC721(_name, _symbol){\n        for(uint8 x;x<12;x++){\n            for(uint8 y;y<12;y++){\n                tiles.push(Tile(address(0x00),x,y,\"\"));\n            }\n        }\n\n    }\n\n    function mint(uint256 _id) public payable {\n        uint256 supply = totalSupply;\n\n        require(supply <= maxSupply);\n        require(tiles[_id].owner == address(0x0));\n        require(msg.value >= 1 ether);\n\n        tiles[_id].owner = msg.sender; \n        totalSupply++;\n        _safeMint(msg.sender, _id);\n    }\n\n     function transferFrom(\n        address from,\n        address to,\n        uint256 tokenId\n    ) public override {\n        require(_isApprovedOrOwner(_msgSender(),tokenId),\n        \"ERC721 : transfer caller is not owner nor approved\");\n\n        tiles[tokenId].owner = to;\n        _transfer(from, to, tokenId);\n    }\n    function safeTransferFrom(\n        address from,\n        address to,\n        uint256 tokenId,\n        bytes memory _data\n    ) public override {\n        require(_isApprovedOrOwner(_msgSender(),tokenId),\"ERC721 : transfer caller is not owner nor approved\");\n\n        tiles[tokenId - 1].owner = to;\n        _safeTransfer(from, to, tokenId, _data);\n    }\n\n    function getTiles() public view returns(Tile[] memory){\n        return tiles;\n    }\n\n    function getTile(uint256 _id) public view returns(Tile memory){\n        return tiles[_id];\n    }\n\n    function setTileImgUrl(uint256 _id, string memory url) public {\n        //    \n        require(msg.sender == tiles[_id].owner);\n\n        tiles[_id].imgUrl = url;\n    } \n}\n\n",
  "sourcePath": "/Users/geechanglee/Documents/Dev/metaboard/contracts/board.sol",
  "compiler": {
    "name": "solc",
    "version": "0.8.13+commit.abaa5c0e.Emscripten.clang"
  },
  "schemaVersion": "3.4.6",
  "updatedAt": "2022-04-17T11:35:07.830Z",
  "networkType": "ethereum",
  "devdoc": {
    "kind": "dev",
    "methods": {
      "approve(address,uint256)": {
        "details": "See {IERC721-approve}."
      },
      "balanceOf(address)": {
        "details": "See {IERC721-balanceOf}."
      },
      "getApproved(uint256)": {
        "details": "See {IERC721-getApproved}."
      },
      "isApprovedForAll(address,address)": {
        "details": "See {IERC721-isApprovedForAll}."
      },
      "name()": {
        "details": "See {IERC721Metadata-name}."
      },
      "owner()": {
        "details": "Returns the address of the current owner."
      },
      "ownerOf(uint256)": {
        "details": "See {IERC721-ownerOf}."
      },
      "renounceOwnership()": {
        "details": "Leaves the contract without owner. It will not be possible to call `onlyOwner` functions anymore. Can only be called by the current owner. NOTE: Renouncing ownership will leave the contract without an owner, thereby removing any functionality that is only available to the owner."
      },
      "safeTransferFrom(address,address,uint256)": {
        "details": "See {IERC721-safeTransferFrom}."
      },
      "safeTransferFrom(address,address,uint256,bytes)": {
        "details": "See {IERC721-safeTransferFrom}."
      },
      "setApprovalForAll(address,bool)": {
        "details": "See {IERC721-setApprovalForAll}."
      },
      "supportsInterface(bytes4)": {
        "details": "See {IERC165-supportsInterface}."
      },
      "symbol()": {
        "details": "See {IERC721Metadata-symbol}."
      },
      "tokenURI(uint256)": {
        "details": "See {IERC721Metadata-tokenURI}."
      },
      "transferFrom(address,address,uint256)": {
        "details": "See {IERC721-transferFrom}."
      },
      "transferOwnership(address)": {
        "details": "Transfers ownership of the contract to a new account (`newOwner`). Can only be called by the current owner."
      }
    },
    "version": 1
  },
  "userdoc": {
    "kind": "user",
    "methods": {},
    "version": 1
  }
}